:1000000004308A00072C0000FF00030E8301A100CA
:100010000A08A0008A010408A2007708A300780853
:10002000A4007908A5007A08A600831383128C30F7
:100030008400001C1D280C182E2822088400230888
:10004000F7002408F8002508F9002608FA0020081F
:100050008A00210E8300FF0E7F0E09008A110A120A
:100060003F280A108A100A118207C034F934A434D8
:10007000B034993492348234F834803490340C1093
:100080008E010B308F00DC308E0000000130A8079D
:1000900028080A3C031D4F28A8010130A7072A0899
:1000A00027020319A701B53090000B160C108A1116
:1000B0000A121D283008F8012F02031862282F08A1
:1000C000F7006E28F7010830B100AF0DF70D3008CA
:1000D00077020318F700F80DB10B652808002F30E0
:1000E000840083130008031982280630F800F70102
:1000F000F70B7828F80B77287B30F700F70B7E2872
:10010000800B752808002708133C031CCE282708FD
:10011000143CAE00831685108312851483160510D7
:10012000831205142E08AF000A30B0005A20780858
:10013000AC002E08AF000A30B0005A207708AD009E
:1001400083168511831285118316051183120515F7
:100150002D083120AF008316880183122F088800F4
:100160000530AF006F208316051183120511831629
:100170008511831285152C083120AF008316880164
:1001800083122F0888000530AF006F208316851179
:100190008312851583160511831205152708133C54
:1001A00003181D292708273C031C1D292708283C64
:1001B000AE008316851083128514831605108312F2
:1001C00005142E08AF000A30B0005A207808AC00A1
:1001D0002E08AF000A30B0005A207708AD00831611
:1001E00085118312851183160511831205152D08BB
:1001F0003120AF008316880183122F088800053054
:10020000AF006F2083160511831205118316851127
:10021000831285152C083120AF00831688018312C4
:100220002F0888000530AF006F20831685118312D8
:10023000851583160511831205152708133C031C29
:10024000A0292708143CAE002E08AF000A30B000E9
:100250005A207808AC002E08AF000A30B0005A20AF
:100260007708AD00831605108312051083168510DC
:10027000831285142D083120AF0083168801831264
:100280002F0888000530AF006F2083168510831279
:10029000851083160510831205142C083120AF0039
:1002A0008316880183122F0888000530AF006F2065
:1002B0002708103C03187E292708133C031C7E29BD
:1002C000831686118312861583160612831206166C
:1002D0008316861283128612AB122B0883168700B0
:1002E00083128716AB132B08831687008312871798
:1002F0002B132B0883168700831207132708103C43
:10030000031CA029AB132B088316870083128717C1
:100310002B132B088316870083120717AB122B08A9
:10032000831687008312871283168611831286151F
:1003300083160612831206168316861283128612FD
:100340002708133C0318192A2708273C031C192ADD
:100350002708283CAE002E08AF000A30B0005A2013
:100360007808AC002E08AF000A30B0005A20770899
:10037000AD00831685108312851483160510831231
:1003800005102D083120AF008316880183122F0835
:1003900088000530AF006F2083168510831285100A
:1003A00083160510831205142C083120AF00831624
:1003B000880183122F0888000530AF006F20AB1230
:1003C0002B0883168700831287162B132B0883169E
:1003D000870083120717AB132B088316870083123D
:1003E00087132708133C0318052A2708243C031CFD
:1003F000052A8316061283120616831686128312A6
:10040000861683168611831286112708243C03184A
:10041000192A2708273C031C192A831686118312E0
:100420008615831686128312861683160612831289
:1004300006128A110A12512C27081D3C031C672A38
:1004400027081E3CAE008316851083128514831680
:100450000510831205142E08AF000A30B0005A2090
:100460007808AC002E08AF000A30B0005A20770898
:10047000AD00831685118312851183160511831231
:1004800005152D083120AF008316880183122F082F
:1004900088000530AF006F20831605118312051107
:1004A00083168511831285152C083120AF00831621
:1004B000880183122F0888000530AF006F20831653
:1004C00085118312851583160511831205152708DA
:1004D0001D3C0318B62A27083B3C031CB62A2708F4
:1004E0003C3CAE00831685108312851483160510DC
:1004F000831205142E08AF000A30B0005A20780885
:10050000AC002E08AF000A30B0005A207708AD00CA
:100510008316851183128511831605118312051523
:100520002D083120AF008316880183122F08880020
:100530000530AF006F208316051183120511831655
:100540008511831285152C083120AF008316880190
:1005500083122F0888000530AF006F2083168511A5
:1005600083128515831605118312051527081D3C76
:10057000031C392B27081E3CAE002E08AF000A30A2
:10058000B0005A207808AC002E08AF000A30B00046
:100590005A207708AD0083160510831205108316C4
:1005A0008510831285142D083120AF008316880131
:1005B00083122F0888000530AF006F208316851046
:1005C0008312851083160510831205142C08312020
:1005D000AF008316880183122F0888000530AF0012
:1005E0006F2027081A3C0318172B27081D3C031CF3
:1005F000172B831686118312861583160612831213
:1006000006168316861283128612AB122B088316E7
:10061000870083128716AB132B088316870083127B
:1006200087172B132B0883168700831207132708BD
:100630001A3C031C392BAB132B088316870083123B
:1006400087172B132B088316870083120717AB120B
:100650002B08831687008312871283168611831254
:1006600086158316061283120616831686128312C7
:10067000861227081D3C0318B22B27083B3C031C9D
:10068000B22B27083C3CAE002E08AF000A30B00069
:100690005A207808AC002E08AF000A30B0005A206B
:1006A0007708AD0083168510831285148316051014
:1006B000831205102D083120AF00831688018312A4
:1006C0002F0888000530AF006F2083168510831235
:1006D000851083160510831205142C083120AF00F5
:1006E0008316880183122F0888000530AF006F2021
:1006F000AB122B0883168700831287162B132B0847
:100700008316870083120717AB132B088316870005
:100710008312871327081D3C03189E2B2708383C9B
:10072000031C9E2B8316061283120616831686124E
:100730008312861683168611831286112708383C89
:100740000318B22B27083B3C031CB22B83168611DF
:100750008312861583168612831286168316061256
:10076000831206128A110A12552C83160510831261
:1007700005148316851083128514831605118312C0
:1007800005158316851183128515270BE62B831615
:100790008611831286158316861283128616831697
:1007A000061283120612AB122B08831687008312DF
:1007B0008716AB132B0883168700831287172B131A
:1007C0002B088316870083120713EA2B83168611E2
:1007D00083128615831686128312861683160612D6
:1007E00083120616AB122B08831687008312871616
:1007F000AB132B0883168700831287172B132B0844
:1008000083168700831207178A110A12592C0308CE
:100810001F398300A701A801FF30AB0083161F1406
:100820009F141F159F1107309C0083130030870011
:100830008312AB008316880085008600B5308312D2
:1008400090008E010B308F00DC308E0000000C1009
:1008500083160C14C03083128B0483168914831200
:100860008918382C0130A900A801A7012830AA0056
:100870008316091483120918432C0230A900A80119
:10088000A7013C30AA0083160915831209194E2CC2
:100890000330A900A801A7010230AA00290B512C9E
:1008A00083282908023C03191C2A2908033C031940
:0608B000B52B2D2C6300A6
:02400E003A3F37
:00000001FF
;PIC16F877A
;CRC=80B1  CREATED="17-Jul-24 11:47"
